{
  "contractName": "ProofOfAssetMint",
  "abi": [
    {
      "inputs": [],
      "payable": false,
      "stateMutability": "nonpayable",
      "type": "constructor"
    },
    {
      "anonymous": false,
      "inputs": [
        {
          "indexed": true,
          "internalType": "int256",
          "name": "itemID",
          "type": "int256"
        }
      ],
      "name": "eventAddItem",
      "type": "event"
    },
    {
      "constant": true,
      "inputs": [
        {
          "internalType": "string",
          "name": "",
          "type": "string"
        }
      ],
      "name": "itemByHash",
      "outputs": [
        {
          "internalType": "uint256",
          "name": "id",
          "type": "uint256"
        },
        {
          "internalType": "uint256",
          "name": "blockTimestamp",
          "type": "uint256"
        },
        {
          "internalType": "uint256",
          "name": "productAmount",
          "type": "uint256"
        },
        {
          "internalType": "uint256",
          "name": "mintAmount",
          "type": "uint256"
        },
        {
          "internalType": "address",
          "name": "tokenContractAddress",
          "type": "address"
        },
        {
          "internalType": "address",
          "name": "registrar",
          "type": "address"
        },
        {
          "internalType": "string",
          "name": "fileHash",
          "type": "string"
        },
        {
          "internalType": "string",
          "name": "productName",
          "type": "string"
        },
        {
          "internalType": "string",
          "name": "metadata",
          "type": "string"
        }
      ],
      "payable": false,
      "stateMutability": "view",
      "type": "function"
    },
    {
      "constant": true,
      "inputs": [
        {
          "internalType": "uint256",
          "name": "",
          "type": "uint256"
        }
      ],
      "name": "items",
      "outputs": [
        {
          "internalType": "uint256",
          "name": "id",
          "type": "uint256"
        },
        {
          "internalType": "uint256",
          "name": "blockTimestamp",
          "type": "uint256"
        },
        {
          "internalType": "uint256",
          "name": "productAmount",
          "type": "uint256"
        },
        {
          "internalType": "uint256",
          "name": "mintAmount",
          "type": "uint256"
        },
        {
          "internalType": "address",
          "name": "tokenContractAddress",
          "type": "address"
        },
        {
          "internalType": "address",
          "name": "registrar",
          "type": "address"
        },
        {
          "internalType": "string",
          "name": "fileHash",
          "type": "string"
        },
        {
          "internalType": "string",
          "name": "productName",
          "type": "string"
        },
        {
          "internalType": "string",
          "name": "metadata",
          "type": "string"
        }
      ],
      "payable": false,
      "stateMutability": "view",
      "type": "function"
    },
    {
      "constant": true,
      "inputs": [
        {
          "internalType": "address",
          "name": "",
          "type": "address"
        },
        {
          "internalType": "uint256",
          "name": "",
          "type": "uint256"
        }
      ],
      "name": "itemsOfRegistrar",
      "outputs": [
        {
          "internalType": "uint256",
          "name": "id",
          "type": "uint256"
        },
        {
          "internalType": "uint256",
          "name": "blockTimestamp",
          "type": "uint256"
        },
        {
          "internalType": "uint256",
          "name": "productAmount",
          "type": "uint256"
        },
        {
          "internalType": "uint256",
          "name": "mintAmount",
          "type": "uint256"
        },
        {
          "internalType": "address",
          "name": "tokenContractAddress",
          "type": "address"
        },
        {
          "internalType": "address",
          "name": "registrar",
          "type": "address"
        },
        {
          "internalType": "string",
          "name": "fileHash",
          "type": "string"
        },
        {
          "internalType": "string",
          "name": "productName",
          "type": "string"
        },
        {
          "internalType": "string",
          "name": "metadata",
          "type": "string"
        }
      ],
      "payable": false,
      "stateMutability": "view",
      "type": "function"
    },
    {
      "constant": true,
      "inputs": [],
      "name": "owner",
      "outputs": [
        {
          "internalType": "address",
          "name": "",
          "type": "address"
        }
      ],
      "payable": false,
      "stateMutability": "view",
      "type": "function"
    },
    {
      "constant": true,
      "inputs": [],
      "name": "tokenContract",
      "outputs": [
        {
          "internalType": "contract FECoin",
          "name": "",
          "type": "address"
        }
      ],
      "payable": false,
      "stateMutability": "view",
      "type": "function"
    },
    {
      "constant": false,
      "inputs": [
        {
          "internalType": "address",
          "name": "_tokenContractAddress",
          "type": "address"
        }
      ],
      "name": "setTokenContractAddress",
      "outputs": [],
      "payable": false,
      "stateMutability": "nonpayable",
      "type": "function"
    },
    {
      "constant": false,
      "inputs": [
        {
          "internalType": "uint256",
          "name": "new_price",
          "type": "uint256"
        }
      ],
      "name": "setPrice",
      "outputs": [],
      "payable": false,
      "stateMutability": "nonpayable",
      "type": "function"
    },
    {
      "constant": true,
      "inputs": [],
      "name": "getPrice",
      "outputs": [
        {
          "internalType": "uint256",
          "name": "",
          "type": "uint256"
        }
      ],
      "payable": false,
      "stateMutability": "view",
      "type": "function"
    },
    {
      "constant": true,
      "inputs": [],
      "name": "getNumberofItems",
      "outputs": [
        {
          "internalType": "uint256",
          "name": "",
          "type": "uint256"
        }
      ],
      "payable": false,
      "stateMutability": "view",
      "type": "function"
    },
    {
      "constant": false,
      "inputs": [
        {
          "internalType": "string",
          "name": "_fileHash",
          "type": "string"
        },
        {
          "internalType": "uint256",
          "name": "_productAmount",
          "type": "uint256"
        },
        {
          "internalType": "string",
          "name": "_productName",
          "type": "string"
        },
        {
          "internalType": "uint256",
          "name": "_mintAmount",
          "type": "uint256"
        },
        {
          "internalType": "string",
          "name": "_metadata",
          "type": "string"
        }
      ],
      "name": "addItem",
      "outputs": [],
      "payable": false,
      "stateMutability": "nonpayable",
      "type": "function"
    },
    {
      "constant": true,
      "inputs": [
        {
          "internalType": "uint256",
          "name": "index",
          "type": "uint256"
        }
      ],
      "name": "getItemStructByIndex",
      "outputs": [
        {
          "components": [
            {
              "internalType": "uint256",
              "name": "id",
              "type": "uint256"
            },
            {
              "internalType": "uint256",
              "name": "blockTimestamp",
              "type": "uint256"
            },
            {
              "internalType": "uint256",
              "name": "productAmount",
              "type": "uint256"
            },
            {
              "internalType": "uint256",
              "name": "mintAmount",
              "type": "uint256"
            },
            {
              "internalType": "address",
              "name": "tokenContractAddress",
              "type": "address"
            },
            {
              "internalType": "address",
              "name": "registrar",
              "type": "address"
            },
            {
              "internalType": "string",
              "name": "fileHash",
              "type": "string"
            },
            {
              "internalType": "string",
              "name": "productName",
              "type": "string"
            },
            {
              "internalType": "string",
              "name": "metadata",
              "type": "string"
            }
          ],
          "internalType": "struct ProofOfAssetMint.Item",
          "name": "",
          "type": "tuple"
        }
      ],
      "payable": false,
      "stateMutability": "view",
      "type": "function"
    },
    {
      "constant": true,
      "inputs": [
        {
          "internalType": "string",
          "name": "_fileHash",
          "type": "string"
        }
      ],
      "name": "getItemStructByHash",
      "outputs": [
        {
          "components": [
            {
              "internalType": "uint256",
              "name": "id",
              "type": "uint256"
            },
            {
              "internalType": "uint256",
              "name": "blockTimestamp",
              "type": "uint256"
            },
            {
              "internalType": "uint256",
              "name": "productAmount",
              "type": "uint256"
            },
            {
              "internalType": "uint256",
              "name": "mintAmount",
              "type": "uint256"
            },
            {
              "internalType": "address",
              "name": "tokenContractAddress",
              "type": "address"
            },
            {
              "internalType": "address",
              "name": "registrar",
              "type": "address"
            },
            {
              "internalType": "string",
              "name": "fileHash",
              "type": "string"
            },
            {
              "internalType": "string",
              "name": "productName",
              "type": "string"
            },
            {
              "internalType": "string",
              "name": "metadata",
              "type": "string"
            }
          ],
          "internalType": "struct ProofOfAssetMint.Item",
          "name": "",
          "type": "tuple"
        }
      ],
      "payable": false,
      "stateMutability": "view",
      "type": "function"
    },
    {
      "constant": true,
      "inputs": [
        {
          "internalType": "address",
          "name": "_registrar",
          "type": "address"
        }
      ],
      "name": "getNumberOfItems",
      "outputs": [
        {
          "internalType": "uint256",
          "name": "",
          "type": "uint256"
        }
      ],
      "payable": false,
      "stateMutability": "view",
      "type": "function"
    },
    {
      "constant": true,
      "inputs": [
        {
          "internalType": "address",
          "name": "_registrar",
          "type": "address"
        },
        {
          "internalType": "uint256",
          "name": "_index",
          "type": "uint256"
        }
      ],
      "name": "getItembyIndex",
      "outputs": [
        {
          "components": [
            {
              "internalType": "uint256",
              "name": "id",
              "type": "uint256"
            },
            {
              "internalType": "uint256",
              "name": "blockTimestamp",
              "type": "uint256"
            },
            {
              "internalType": "uint256",
              "name": "productAmount",
              "type": "uint256"
            },
            {
              "internalType": "uint256",
              "name": "mintAmount",
              "type": "uint256"
            },
            {
              "internalType": "address",
              "name": "tokenContractAddress",
              "type": "address"
            },
            {
              "internalType": "address",
              "name": "registrar",
              "type": "address"
            },
            {
              "internalType": "string",
              "name": "fileHash",
              "type": "string"
            },
            {
              "internalType": "string",
              "name": "productName",
              "type": "string"
            },
            {
              "internalType": "string",
              "name": "metadata",
              "type": "string"
            }
          ],
          "internalType": "struct ProofOfAssetMint.Item",
          "name": "",
          "type": "tuple"
        }
      ],
      "payable": false,
      "stateMutability": "view",
      "type": "function"
    }
  ],
  "bytecode": "0x6080604052600060035534801561001557600080fd5b50336000806101000a81548173ffffffffffffffffffffffffffffffffffffffff021916908373ffffffffffffffffffffffffffffffffffffffff16021790555061266c806100656000396000f3fe608060405234801561001057600080fd5b50600436106100ea5760003560e01c806391b7f5ed1161008c578063b23d485411610066578063b23d48541461025f578063bfb231d21461027b578063d14ad461146102b3578063ea4fc4d6146102eb576100ea565b806391b7f5ed146101f557806396557d841461021157806398d5fdca14610241576100ea565b806359a4a6bd116100c857806359a4a6bd1461015b57806376ce25c6146101775780638a891ad2146101a75780638da5cb5b146101d7576100ea565b80630feae47f146100ef57806344b8ac7e1461010d57806355a373d61461013d575b600080fd5b6100f7610323565b604051610104919061236a565b60405180910390f35b61012760048036036101229190810190611db3565b61032d565b6040516101349190612348565b60405180910390f35b61014561065b565b60405161015291906122ad565b60405180910390f35b61017560048036036101709190810190611e9a565b610681565b005b610191600480360361018c9190810190611f59565b610d6c565b60405161019e9190612348565b60405180910390f35b6101c160048036036101bc9190810190611e59565b611098565b6040516101ce9190612348565b60405180910390f35b6101df61138b565b6040516101ec9190612269565b60405180910390f35b61020f600480360361020a9190810190611f59565b6113b0565b005b61022b60048036036102269190810190611d8a565b6113ba565b604051610238919061236a565b60405180910390f35b610249611406565b604051610256919061236a565b60405180910390f35b61027960048036036102749190810190611d8a565b611410565b005b61029560048036036102909190810190611f59565b611454565b6040516102aa99989796959493929190612385565b60405180910390f35b6102cd60048036036102c89190810190611db3565b6116aa565b6040516102e299989796959493929190612385565b60405180910390f35b61030560048036036103009190810190611e18565b61191a565b60405161031a99989796959493929190612385565b60405180910390f35b6000600354905090565b610335611b86565b600660008473ffffffffffffffffffffffffffffffffffffffff1673ffffffffffffffffffffffffffffffffffffffff168152602001908152602001600020828154811061037f57fe5b906000526020600020906009020160405180610120016040529081600082015481526020016001820154815260200160028201548152602001600382015481526020016004820160009054906101000a900473ffffffffffffffffffffffffffffffffffffffff1673ffffffffffffffffffffffffffffffffffffffff1673ffffffffffffffffffffffffffffffffffffffff1681526020016005820160009054906101000a900473ffffffffffffffffffffffffffffffffffffffff1673ffffffffffffffffffffffffffffffffffffffff1673ffffffffffffffffffffffffffffffffffffffff168152602001600682018054600181600116156101000203166002900480601f0160208091040260200160405190810160405280929190818152602001828054600181600116156101000203166002900480156105065780601f106104db57610100808354040283529160200191610506565b820191906000526020600020905b8154815290600101906020018083116104e957829003601f168201915b50505050508152602001600782018054600181600116156101000203166002900480601f0160208091040260200160405190810160405280929190818152602001828054600181600116156101000203166002900480156105a85780601f1061057d576101008083540402835291602001916105a8565b820191906000526020600020905b81548152906001019060200180831161058b57829003601f168201915b50505050508152602001600882018054600181600116156101000203166002900480601f01602080910402602001604051908101604052809291908181526020018280546001816001161561010002031660029004801561064a5780601f1061061f5761010080835404028352916020019161064a565b820191906000526020600020905b81548152906001019060200180831161062d57829003601f168201915b505050505081525050905092915050565b600160009054906101000a900473ffffffffffffffffffffffffffffffffffffffff1681565b600073ffffffffffffffffffffffffffffffffffffffff166005866040516106a99190612252565b908152602001604051809103902060050160009054906101000a900473ffffffffffffffffffffffffffffffffffffffff1673ffffffffffffffffffffffffffffffffffffffff1614610731576040517f08c379a000000000000000000000000000000000000000000000000000000000815260040161072890612328565b60405180910390fd5b600073ffffffffffffffffffffffffffffffffffffffff16600160009054906101000a900473ffffffffffffffffffffffffffffffffffffffff1673ffffffffffffffffffffffffffffffffffffffff1614156107c3576040517f08c379a00000000000000000000000000000000000000000000000000000000081526004016107ba906122c8565b60405180910390fd5b6000600160009054906101000a900473ffffffffffffffffffffffffffffffffffffffff1673ffffffffffffffffffffffffffffffffffffffff166340c10f1932856040518363ffffffff1660e01b8152600401610822929190612284565b602060405180830381600087803b15801561083c57600080fd5b505af1158015610850573d6000803e3d6000fd5b505050506040513d601f19601f820116820180604052506108749190810190611def565b9050806108b6576040517f08c379a00000000000000000000000000000000000000000000000000000000081526004016108ad906122e8565b60405180910390fd5b6108be611b86565b6040518061012001604052806003548152602001428152602001878152602001858152602001600160009054906101000a900473ffffffffffffffffffffffffffffffffffffffff1673ffffffffffffffffffffffffffffffffffffffff1681526020013373ffffffffffffffffffffffffffffffffffffffff168152602001888152602001868152602001848152509050806005886040516109619190612252565b90815260200160405180910390206000820151816000015560208201518160010155604082015181600201556060820151816003015560808201518160040160006101000a81548173ffffffffffffffffffffffffffffffffffffffff021916908373ffffffffffffffffffffffffffffffffffffffff16021790555060a08201518160050160006101000a81548173ffffffffffffffffffffffffffffffffffffffff021916908373ffffffffffffffffffffffffffffffffffffffff16021790555060c0820151816006019080519060200190610a41929190611bfe565b5060e0820151816007019080519060200190610a5e929190611bfe565b50610100820151816008019080519060200190610a7c929190611bfe565b509050508060046000600360008154809291906001019190505581526020019081526020016000206000820151816000015560208201518160010155604082015181600201556060820151816003015560808201518160040160006101000a81548173ffffffffffffffffffffffffffffffffffffffff021916908373ffffffffffffffffffffffffffffffffffffffff16021790555060a08201518160050160006101000a81548173ffffffffffffffffffffffffffffffffffffffff021916908373ffffffffffffffffffffffffffffffffffffffff16021790555060c0820151816006019080519060200190610b76929190611bfe565b5060e0820151816007019080519060200190610b93929190611bfe565b50610100820151816008019080519060200190610bb1929190611bfe565b50905050600660003373ffffffffffffffffffffffffffffffffffffffff1673ffffffffffffffffffffffffffffffffffffffff16815260200190815260200160002081908060018154018082558091505090600182039060005260206000209060090201600090919290919091506000820151816000015560208201518160010155604082015181600201556060820151816003015560808201518160040160006101000a81548173ffffffffffffffffffffffffffffffffffffffff021916908373ffffffffffffffffffffffffffffffffffffffff16021790555060a08201518160050160006101000a81548173ffffffffffffffffffffffffffffffffffffffff021916908373ffffffffffffffffffffffffffffffffffffffff16021790555060c0820151816006019080519060200190610cf2929190611bfe565b5060e0820151816007019080519060200190610d0f929190611bfe565b50610100820151816008019080519060200190610d2d929190611bfe565b505050506001600354037fe6a277db2ccfa3077b4f153935dc9633865a88e7c3f9767488c726f8cb288ec460405160405180910390a250505050505050565b610d74611b86565b6003548210610db8576040517f08c379a0000000000000000000000000000000000000000000000000000000008152600401610daf90612308565b60405180910390fd5b6004600083815260200190815260200160002060405180610120016040529081600082015481526020016001820154815260200160028201548152602001600382015481526020016004820160009054906101000a900473ffffffffffffffffffffffffffffffffffffffff1673ffffffffffffffffffffffffffffffffffffffff1673ffffffffffffffffffffffffffffffffffffffff1681526020016005820160009054906101000a900473ffffffffffffffffffffffffffffffffffffffff1673ffffffffffffffffffffffffffffffffffffffff1673ffffffffffffffffffffffffffffffffffffffff168152602001600682018054600181600116156101000203166002900480601f016020809104026020016040519081016040528092919081815260200182805460018160011615610100020316600290048015610f445780601f10610f1957610100808354040283529160200191610f44565b820191906000526020600020905b815481529060010190602001808311610f2757829003601f168201915b50505050508152602001600782018054600181600116156101000203166002900480601f016020809104026020016040519081016040528092919081815260200182805460018160011615610100020316600290048015610fe65780601f10610fbb57610100808354040283529160200191610fe6565b820191906000526020600020905b815481529060010190602001808311610fc957829003601f168201915b50505050508152602001600882018054600181600116156101000203166002900480601f0160208091040260200160405190810160405280929190818152602001828054600181600116156101000203166002900480156110885780601f1061105d57610100808354040283529160200191611088565b820191906000526020600020905b81548152906001019060200180831161106b57829003601f168201915b5050505050815250509050919050565b6110a0611b86565b6005826040516110b09190612252565b908152602001604051809103902060405180610120016040529081600082015481526020016001820154815260200160028201548152602001600382015481526020016004820160009054906101000a900473ffffffffffffffffffffffffffffffffffffffff1673ffffffffffffffffffffffffffffffffffffffff1673ffffffffffffffffffffffffffffffffffffffff1681526020016005820160009054906101000a900473ffffffffffffffffffffffffffffffffffffffff1673ffffffffffffffffffffffffffffffffffffffff1673ffffffffffffffffffffffffffffffffffffffff168152602001600682018054600181600116156101000203166002900480601f0160208091040260200160405190810160405280929190818152602001828054600181600116156101000203166002900480156112375780601f1061120c57610100808354040283529160200191611237565b820191906000526020600020905b81548152906001019060200180831161121a57829003601f168201915b50505050508152602001600782018054600181600116156101000203166002900480601f0160208091040260200160405190810160405280929190818152602001828054600181600116156101000203166002900480156112d95780601f106112ae576101008083540402835291602001916112d9565b820191906000526020600020905b8154815290600101906020018083116112bc57829003601f168201915b50505050508152602001600882018054600181600116156101000203166002900480601f01602080910402602001604051908101604052809291908181526020018280546001816001161561010002031660029004801561137b5780601f106113505761010080835404028352916020019161137b565b820191906000526020600020905b81548152906001019060200180831161135e57829003601f168201915b5050505050815250509050919050565b6000809054906101000a900473ffffffffffffffffffffffffffffffffffffffff1681565b8060028190555050565b6000600660008373ffffffffffffffffffffffffffffffffffffffff1673ffffffffffffffffffffffffffffffffffffffff168152602001908152602001600020805490509050919050565b6000600254905090565b80600160006101000a81548173ffffffffffffffffffffffffffffffffffffffff021916908373ffffffffffffffffffffffffffffffffffffffff16021790555050565b60046020528060005260406000206000915090508060000154908060010154908060020154908060030154908060040160009054906101000a900473ffffffffffffffffffffffffffffffffffffffff16908060050160009054906101000a900473ffffffffffffffffffffffffffffffffffffffff1690806006018054600181600116156101000203166002900480601f0160208091040260200160405190810160405280929190818152602001828054600181600116156101000203166002900480156115645780601f1061153957610100808354040283529160200191611564565b820191906000526020600020905b81548152906001019060200180831161154757829003601f168201915b505050505090806007018054600181600116156101000203166002900480601f0160208091040260200160405190810160405280929190818152602001828054600181600116156101000203166002900480156116025780601f106115d757610100808354040283529160200191611602565b820191906000526020600020905b8154815290600101906020018083116115e557829003601f168201915b505050505090806008018054600181600116156101000203166002900480601f0160208091040260200160405190810160405280929190818152602001828054600181600116156101000203166002900480156116a05780601f10611675576101008083540402835291602001916116a0565b820191906000526020600020905b81548152906001019060200180831161168357829003601f168201915b5050505050905089565b600660205281600052604060002081815481106116c357fe5b9060005260206000209060090201600091509150508060000154908060010154908060020154908060030154908060040160009054906101000a900473ffffffffffffffffffffffffffffffffffffffff16908060050160009054906101000a900473ffffffffffffffffffffffffffffffffffffffff1690806006018054600181600116156101000203166002900480601f0160208091040260200160405190810160405280929190818152602001828054600181600116156101000203166002900480156117d45780601f106117a9576101008083540402835291602001916117d4565b820191906000526020600020905b8154815290600101906020018083116117b757829003601f168201915b505050505090806007018054600181600116156101000203166002900480601f0160208091040260200160405190810160405280929190818152602001828054600181600116156101000203166002900480156118725780601f1061184757610100808354040283529160200191611872565b820191906000526020600020905b81548152906001019060200180831161185557829003601f168201915b505050505090806008018054600181600116156101000203166002900480601f0160208091040260200160405190810160405280929190818152602001828054600181600116156101000203166002900480156119105780601f106118e557610100808354040283529160200191611910565b820191906000526020600020905b8154815290600101906020018083116118f357829003601f168201915b5050505050905089565b6005818051602081018201805184825260208301602085012081835280955050505050506000915090508060000154908060010154908060020154908060030154908060040160009054906101000a900473ffffffffffffffffffffffffffffffffffffffff16908060050160009054906101000a900473ffffffffffffffffffffffffffffffffffffffff1690806006018054600181600116156101000203166002900480601f016020809104026020016040519081016040528092919081815260200182805460018160011615610100020316600290048015611a405780601f10611a1557610100808354040283529160200191611a40565b820191906000526020600020905b815481529060010190602001808311611a2357829003601f168201915b505050505090806007018054600181600116156101000203166002900480601f016020809104026020016040519081016040528092919081815260200182805460018160011615610100020316600290048015611ade5780601f10611ab357610100808354040283529160200191611ade565b820191906000526020600020905b815481529060010190602001808311611ac157829003601f168201915b505050505090806008018054600181600116156101000203166002900480601f016020809104026020016040519081016040528092919081815260200182805460018160011615610100020316600290048015611b7c5780601f10611b5157610100808354040283529160200191611b7c565b820191906000526020600020905b815481529060010190602001808311611b5f57829003601f168201915b5050505050905089565b60405180610120016040528060008152602001600081526020016000815260200160008152602001600073ffffffffffffffffffffffffffffffffffffffff168152602001600073ffffffffffffffffffffffffffffffffffffffff1681526020016060815260200160608152602001606081525090565b828054600181600116156101000203166002900490600052602060002090601f016020900481019282601f10611c3f57805160ff1916838001178555611c6d565b82800160010185558215611c6d579182015b82811115611c6c578251825591602001919060010190611c51565b5b509050611c7a9190611c7e565b5090565b611ca091905b80821115611c9c576000816000905550600101611c84565b5090565b90565b600081359050611cb2816125e4565b92915050565b600081519050611cc7816125fb565b92915050565b600082601f830112611cde57600080fd5b8135611cf1611cec82612454565b612427565b91508082526020830160208301858383011115611d0d57600080fd5b611d18838284612591565b50505092915050565b600082601f830112611d3257600080fd5b8135611d45611d4082612480565b612427565b91508082526020830160208301858383011115611d6157600080fd5b611d6c838284612591565b50505092915050565b600081359050611d8481612612565b92915050565b600060208284031215611d9c57600080fd5b6000611daa84828501611ca3565b91505092915050565b60008060408385031215611dc657600080fd5b6000611dd485828601611ca3565b9250506020611de585828601611d75565b9150509250929050565b600060208284031215611e0157600080fd5b6000611e0f84828501611cb8565b91505092915050565b600060208284031215611e2a57600080fd5b600082013567ffffffffffffffff811115611e4457600080fd5b611e5084828501611ccd565b91505092915050565b600060208284031215611e6b57600080fd5b600082013567ffffffffffffffff811115611e8557600080fd5b611e9184828501611d21565b91505092915050565b600080600080600060a08688031215611eb257600080fd5b600086013567ffffffffffffffff811115611ecc57600080fd5b611ed888828901611d21565b9550506020611ee988828901611d75565b945050604086013567ffffffffffffffff811115611f0657600080fd5b611f1288828901611d21565b9350506060611f2388828901611d75565b925050608086013567ffffffffffffffff811115611f4057600080fd5b611f4c88828901611d21565b9150509295509295909350565b600060208284031215611f6b57600080fd5b6000611f7984828501611d75565b91505092915050565b611f8b81612537565b82525050565b611f9a816124ef565b82525050565b611fa9816124ef565b82525050565b611fb881612549565b82525050565b6000611fc9826124b7565b611fd381856124e4565b9350611fe38185602086016125a0565b80840191505092915050565b6000611ffa826124ac565b61200481856124c2565b93506120148185602086016125a0565b61201d816125d3565b840191505092915050565b6000612033826124ac565b61203d81856124d3565b935061204d8185602086016125a0565b612056816125d3565b840191505092915050565b600061206e6019836124d3565b91507f4e6f20746f6b656e20636f6e747261637420646566696e6564000000000000006000830152602082019050919050565b60006120ae6019836124d3565b91507f546f6b656e206d696e742070726f63657373206661696c6564000000000000006000830152602082019050919050565b60006120ee601b836124d3565b91507f4552524f523a20696e646578206f7574206f6620626f756e64733a00000000006000830152602082019050919050565b600061212e601f836124d3565b91507f6974656d206861736820697320616c72656164792072656769737465726564006000830152602082019050919050565b60006101208301600083015161217a6000860182612234565b50602083015161218d6020860182612234565b5060408301516121a06040860182612234565b5060608301516121b36060860182612234565b5060808301516121c66080860182611f91565b5060a08301516121d960a0860182611f91565b5060c083015184820360c08601526121f18282611fef565b91505060e083015184820360e086015261220b8282611fef565b9150506101008301518482036101008601526122278282611fef565b9150508091505092915050565b61223d8161252d565b82525050565b61224c8161252d565b82525050565b600061225e8284611fbe565b915081905092915050565b600060208201905061227e6000830184611fa0565b92915050565b60006040820190506122996000830185611f82565b6122a66020830184612243565b9392505050565b60006020820190506122c26000830184611faf565b92915050565b600060208201905081810360008301526122e181612061565b9050919050565b60006020820190508181036000830152612301816120a1565b9050919050565b60006020820190508181036000830152612321816120e1565b9050919050565b6000602082019050818103600083015261234181612121565b9050919050565b600060208201905081810360008301526123628184612161565b905092915050565b600060208201905061237f6000830184612243565b92915050565b60006101208201905061239b600083018c612243565b6123a8602083018b612243565b6123b5604083018a612243565b6123c26060830189612243565b6123cf6080830188611fa0565b6123dc60a0830187611fa0565b81810360c08301526123ee8186612028565b905081810360e08301526124028185612028565b90508181036101008301526124178184612028565b90509a9950505050505050505050565b6000604051905081810181811067ffffffffffffffff8211171561244a57600080fd5b8060405250919050565b600067ffffffffffffffff82111561246b57600080fd5b601f19601f8301169050602081019050919050565b600067ffffffffffffffff82111561249757600080fd5b601f19601f8301169050602081019050919050565b600081519050919050565b600081519050919050565b600082825260208201905092915050565b600082825260208201905092915050565b600081905092915050565b60006124fa8261250d565b9050919050565b60008115159050919050565b600073ffffffffffffffffffffffffffffffffffffffff82169050919050565b6000819050919050565b60006125428261256d565b9050919050565b60006125548261255b565b9050919050565b60006125668261250d565b9050919050565b60006125788261257f565b9050919050565b600061258a8261250d565b9050919050565b82818337600083830152505050565b60005b838110156125be5780820151818401526020810190506125a3565b838111156125cd576000848401525b50505050565b6000601f19601f8301169050919050565b6125ed816124ef565b81146125f857600080fd5b50565b61260481612501565b811461260f57600080fd5b50565b61261b8161252d565b811461262657600080fd5b5056fea365627a7a723158206fd61b8b5f20c303f59a430b1ab05d66b3cb40fd318606fa03ea9fbd81ea2caa6c6578706572696d656e74616cf564736f6c63430005100040",
  "source": "pragma solidity ^0.5.0;\npragma experimental ABIEncoderV2;   // required to pass structs as function parameter and return values\n\nimport \"./FECoin.sol\";\n// import \"../../browser/FECoin.sol\";  // remix\n\n/// @title  ProofOfAsset\n/// @author Sven Meyer\n/// @notice only implements very basic functionality (add, retrieve)\n/// @dev functions passing structs can be tested using the experimental ABIEncoderV2\n\n// Import Ownable from the OpenZeppelin Contracts library\n// append 'onlyOwner' to control access to function\n// import \"@openzeppelin/contracts/ownership/Ownable.sol\";\n// contract ProofOfAsset is Ownable {\n\ncontract ProofOfAssetMint {\n\n\taddress public owner;\n\t// address public tokenContractAddress;\n\tFECoin  public tokenContract;\n\n\tconstructor() public {\n\t\towner = msg.sender;\n\t}\n\n\tfunction setTokenContractAddress(address _tokenContractAddress) public {  // add onlyOwner TODO\n\t\t// tokenContractAddress = _tokenContractAddress;  // redundant - remove later : TODO\n\t\ttokenContract = FECoin(_tokenContractAddress);\n\t}\n\n\t// set / get price for a registration transaction\n\n\tuint private price;  // we may want to do some internal price calculations in the future\n\n\tfunction setPrice(uint new_price) public {  // add onlyOwner TODO\n\t\tprice = new_price;\n\t}\n\n\tfunction getPrice() public view returns (uint) {\n\t\treturn price;\n\t}\n\n\t// ----------------------------------------------------------------------------\n\n\t// error codes library\n\tint constant code_item_not_found     = -1;\n\tint constant code_not_authorized     = -2;\n\tint constant code_invalid_params     = -3;\n\tint constant code_already_registered = -4;\n\tint constant code_amount_wrong       = -5;\n\tint constant code_insufficient_funds = -6;\n\n\n\t/// @dev data struct to store one ProofOfAsset item / RegData\n\tstruct Item {\n\t\tuint     id;               // index of item starting with 0\n\t\tuint     blockTimestamp;   // timestamp of registration\n\t\tuint     productAmount;    // amount of product (18 decimal digits fractional part) > ufixed TODO?\n\t\tuint     mintAmount;       // number of token minted for this registration > ufixed TODO?\n\t\taddress  tokenContractAddress;    // address of token to mint\n\t\taddress  registrar;        // registrar of item\n\t\tstring   fileHash;         // hash of file (= IPFS storage location)\n\t\t// string   tokenMintTx;      // token mint transaction\n\t\tstring   productName;      // name of product\n\t\tstring   metadata;         // (optional) additional metadata, JSON format recommended)\n\t}\n\n\tuint itemCount = 0; // private - we do not want direct access to it\n\n\tfunction getNumberofItems() public view returns (uint) {\n\t\treturn itemCount;\n\t}\n\n\t/// @dev mapping from id to one item\n\tmapping (uint => Item) public items;\n\n\t/// @dev mapping from hash to item\n\tmapping (string => Item) public itemByHash;\n\n\t/// @dev mapping from registrar address to array of items\n\tmapping (address => Item[]) public itemsOfRegistrar;\n\n\n\t/// @dev event to notify of result of addItem function\n\t/// @return if >= 0 itemID\n\t/// @return if <  0 errorCode\n\tevent eventAddItem(\n\t\tint indexed itemID // or errorCode\n\t);\n\n\n\t/// @dev add a new item to the collection\n\t/// @dev emits eventAddItem event\n\n\tfunction addItem(\n\t\t\tstring memory _fileHash,\n\t    uint   _productAmount,\n\t\t\tstring memory _productName,\n      uint    _mintAmount,\n      string memory _metadata)\n      public\n\t{\n\t\t// check if any parameter is too long / out of scope\n\n\t\t// check if item does not already exist\n    require(itemByHash[_fileHash].registrar == address(0), \"item hash is already registered\");\n\n    // TODO implement payable contract\n\t\t// require(msg.value (uint) == price, \"amount sent does not match price\");  // number of wei sent with the message\n\n    // check if a token contract has been set\n\t\trequire(address(tokenContract) != address(0), 'No token contract defined');\n\n\t\tbool tokenMintResult = tokenContract.mint(tx.origin, _mintAmount);\n\n\t\trequire(tokenMintResult, \"Token mint process failed\");\n\n\t\tItem memory item = Item({\n\t\t\tid              : itemCount,\n\t\t\tregistrar       : msg.sender,  // tx.origin ? https://solidity.readthedocs.io/en/v0.5.3/security-considerations.html#tx-origin\n\t\t\tblockTimestamp  : block.timestamp,  // do we actually have to store that explicitly? TODO?\n\t\t\tproductName     : _productName,\n\t\t\tproductAmount   : _productAmount,\n\t\t\ttokenContractAddress : address(tokenContract), // tokenContract.address, .this (current contracts type): the current contract, explicitly convertible to address // TODO\n\t\t\tmintAmount      : _mintAmount,\n\t\t\tfileHash        : _fileHash,\n\t\t\t// tokenMintTx     : tokenMintResult,\n\t\t\tmetadata        : _metadata\n\t\t});\n\n\t    // add new item to mapping : hash -> item\n\t\titemByHash[_fileHash] = item;\n\n\t\t// add new item to mapping : id -> item\n\t\titems[itemCount++] = item;\n\n\t\t// add new item to registrar.array[] > item\n\t\titemsOfRegistrar[msg.sender].push(item);\n\n\t\temit eventAddItem(int(itemCount - 1));\n\t}\n\n\n\t/// @dev retrieve item by index from collection\n\t/// @param index (starting with 0) of item within items\n\t/// @return url URL to the media file (image or video)\n\t/// @return caption Caption text for media item\n\t/// @dev Item struct will be decomposed and the elements will be returned individually\n    /*\n\tfunction getItemByIndex(uint index) public view returns (string memory, string memory) {\n\t\trequire(index < itemCount, \"ERROR: index out of bounds:\");\n\t\treturn(items[index].url, items[index].caption);\n\t}\n    */\n\n\t/// @dev retrive item  by index as struct from collection\n\t/// @param index (starting with 0) of item within items\n\t/// @return Item struct\n\t/// @dev emits ItemAdded event\n\t/// @dev Passing structs is only supported in the new experimental ABI encoder - use with care!\n\tfunction getItemStructByIndex(uint index) public view returns (Item memory) {\n\t\trequire(index < itemCount, \"ERROR: index out of bounds:\");\n\t\treturn(items[index]);\n\t}\n\n\tfunction getItemStructByHash(string memory _fileHash) public view returns (Item memory) {\n\t\treturn(itemByHash[_fileHash]);\n\t}\n\n\tfunction getNumberOfItems(address _registrar) public view returns (uint) {\n\t\t// TODO : check for existnece before trying to access length\n\t\treturn(itemsOfRegistrar[_registrar].length);\n\t}\n\n\tfunction getItembyIndex(address _registrar, uint _index) public view returns (Item memory) {\n\t\t// TODO : check for existnece before trying to access length\n\t\treturn(itemsOfRegistrar[_registrar][_index]);\n\t}\n\n}\n",
  "sourcePath": "/home/sum/DEV/IronOre/Proof-of-Asset-Eth/contracts/ProofOfAssetMint.sol",
  "compiler": {
    "name": "solc",
    "version": "0.5.16+commit.9c3226ce.Emscripten.clang"
  },
  "schemaVersion": "3.0.23",
  "updatedAt": "2020-02-24T13:01:31.846Z",
  "networkType": "ethereum",
  "devdoc": {
    "author": "Sven Meyer",
    "details": "functions passing structs can be tested using the experimental ABIEncoderV2",
    "methods": {
      "addItem(string,uint256,string,uint256,string)": {
        "details": "add a new item to the collectionemits eventAddItem event"
      },
      "getItemStructByIndex(uint256)": {
        "details": "retrive item  by index as struct from collectionemits ItemAdded eventPassing structs is only supported in the new experimental ABI encoder - use with care!",
        "params": {
          "index": "(starting with 0) of item within items"
        },
        "return": "Item struct"
      }
    },
    "title": "ProofOfAsset"
  },
  "userdoc": {
    "methods": {},
    "notice": "only implements very basic functionality (add, retrieve)"
  }
}