{
  "contractName": "ProofOfAsset",
  "abi": [
    {
      "inputs": [],
      "payable": false,
      "stateMutability": "nonpayable",
      "type": "constructor"
    },
    {
      "anonymous": false,
      "inputs": [
        {
          "indexed": true,
          "internalType": "int256",
          "name": "itemID",
          "type": "int256"
        }
      ],
      "name": "eventAddItem",
      "type": "event"
    },
    {
      "constant": true,
      "inputs": [
        {
          "internalType": "string",
          "name": "",
          "type": "string"
        }
      ],
      "name": "itemByHash",
      "outputs": [
        {
          "internalType": "uint256",
          "name": "id",
          "type": "uint256"
        },
        {
          "internalType": "uint256",
          "name": "blockTimestamp",
          "type": "uint256"
        },
        {
          "internalType": "uint256",
          "name": "mintAmount",
          "type": "uint256"
        },
        {
          "internalType": "address",
          "name": "tokenContract",
          "type": "address"
        },
        {
          "internalType": "address",
          "name": "registrar",
          "type": "address"
        },
        {
          "internalType": "string",
          "name": "fileHash",
          "type": "string"
        },
        {
          "internalType": "string",
          "name": "adrCloudStorage",
          "type": "string"
        },
        {
          "internalType": "string",
          "name": "metadata",
          "type": "string"
        }
      ],
      "payable": false,
      "stateMutability": "view",
      "type": "function"
    },
    {
      "constant": true,
      "inputs": [
        {
          "internalType": "uint256",
          "name": "",
          "type": "uint256"
        }
      ],
      "name": "items",
      "outputs": [
        {
          "internalType": "uint256",
          "name": "id",
          "type": "uint256"
        },
        {
          "internalType": "uint256",
          "name": "blockTimestamp",
          "type": "uint256"
        },
        {
          "internalType": "uint256",
          "name": "mintAmount",
          "type": "uint256"
        },
        {
          "internalType": "address",
          "name": "tokenContract",
          "type": "address"
        },
        {
          "internalType": "address",
          "name": "registrar",
          "type": "address"
        },
        {
          "internalType": "string",
          "name": "fileHash",
          "type": "string"
        },
        {
          "internalType": "string",
          "name": "adrCloudStorage",
          "type": "string"
        },
        {
          "internalType": "string",
          "name": "metadata",
          "type": "string"
        }
      ],
      "payable": false,
      "stateMutability": "view",
      "type": "function"
    },
    {
      "constant": true,
      "inputs": [
        {
          "internalType": "address",
          "name": "",
          "type": "address"
        },
        {
          "internalType": "uint256",
          "name": "",
          "type": "uint256"
        }
      ],
      "name": "itemsOfRegistrar",
      "outputs": [
        {
          "internalType": "uint256",
          "name": "id",
          "type": "uint256"
        },
        {
          "internalType": "uint256",
          "name": "blockTimestamp",
          "type": "uint256"
        },
        {
          "internalType": "uint256",
          "name": "mintAmount",
          "type": "uint256"
        },
        {
          "internalType": "address",
          "name": "tokenContract",
          "type": "address"
        },
        {
          "internalType": "address",
          "name": "registrar",
          "type": "address"
        },
        {
          "internalType": "string",
          "name": "fileHash",
          "type": "string"
        },
        {
          "internalType": "string",
          "name": "adrCloudStorage",
          "type": "string"
        },
        {
          "internalType": "string",
          "name": "metadata",
          "type": "string"
        }
      ],
      "payable": false,
      "stateMutability": "view",
      "type": "function"
    },
    {
      "constant": true,
      "inputs": [],
      "name": "owner",
      "outputs": [
        {
          "internalType": "address",
          "name": "",
          "type": "address"
        }
      ],
      "payable": false,
      "stateMutability": "view",
      "type": "function"
    },
    {
      "constant": false,
      "inputs": [
        {
          "internalType": "uint256",
          "name": "x",
          "type": "uint256"
        }
      ],
      "name": "setPrice",
      "outputs": [],
      "payable": false,
      "stateMutability": "nonpayable",
      "type": "function"
    },
    {
      "constant": true,
      "inputs": [],
      "name": "getPrice",
      "outputs": [
        {
          "internalType": "uint256",
          "name": "",
          "type": "uint256"
        }
      ],
      "payable": false,
      "stateMutability": "view",
      "type": "function"
    },
    {
      "constant": true,
      "inputs": [],
      "name": "getNumberofItems",
      "outputs": [
        {
          "internalType": "uint256",
          "name": "",
          "type": "uint256"
        }
      ],
      "payable": false,
      "stateMutability": "view",
      "type": "function"
    },
    {
      "constant": false,
      "inputs": [
        {
          "internalType": "string",
          "name": "_fileHash",
          "type": "string"
        },
        {
          "internalType": "string",
          "name": "_adrCloudStorage",
          "type": "string"
        },
        {
          "internalType": "string",
          "name": "_metadata",
          "type": "string"
        },
        {
          "internalType": "address",
          "name": "_tokenContract",
          "type": "address"
        },
        {
          "internalType": "uint256",
          "name": "_mintAmount",
          "type": "uint256"
        }
      ],
      "name": "addItem",
      "outputs": [],
      "payable": false,
      "stateMutability": "nonpayable",
      "type": "function"
    },
    {
      "constant": true,
      "inputs": [
        {
          "internalType": "uint256",
          "name": "index",
          "type": "uint256"
        }
      ],
      "name": "getItemStructByIndex",
      "outputs": [
        {
          "components": [
            {
              "internalType": "uint256",
              "name": "id",
              "type": "uint256"
            },
            {
              "internalType": "uint256",
              "name": "blockTimestamp",
              "type": "uint256"
            },
            {
              "internalType": "uint256",
              "name": "mintAmount",
              "type": "uint256"
            },
            {
              "internalType": "address",
              "name": "tokenContract",
              "type": "address"
            },
            {
              "internalType": "address",
              "name": "registrar",
              "type": "address"
            },
            {
              "internalType": "string",
              "name": "fileHash",
              "type": "string"
            },
            {
              "internalType": "string",
              "name": "adrCloudStorage",
              "type": "string"
            },
            {
              "internalType": "string",
              "name": "metadata",
              "type": "string"
            }
          ],
          "internalType": "struct ProofOfAsset.Item",
          "name": "",
          "type": "tuple"
        }
      ],
      "payable": false,
      "stateMutability": "view",
      "type": "function"
    },
    {
      "constant": true,
      "inputs": [
        {
          "internalType": "string",
          "name": "_fileHash",
          "type": "string"
        }
      ],
      "name": "getItemStructByHash",
      "outputs": [
        {
          "components": [
            {
              "internalType": "uint256",
              "name": "id",
              "type": "uint256"
            },
            {
              "internalType": "uint256",
              "name": "blockTimestamp",
              "type": "uint256"
            },
            {
              "internalType": "uint256",
              "name": "mintAmount",
              "type": "uint256"
            },
            {
              "internalType": "address",
              "name": "tokenContract",
              "type": "address"
            },
            {
              "internalType": "address",
              "name": "registrar",
              "type": "address"
            },
            {
              "internalType": "string",
              "name": "fileHash",
              "type": "string"
            },
            {
              "internalType": "string",
              "name": "adrCloudStorage",
              "type": "string"
            },
            {
              "internalType": "string",
              "name": "metadata",
              "type": "string"
            }
          ],
          "internalType": "struct ProofOfAsset.Item",
          "name": "",
          "type": "tuple"
        }
      ],
      "payable": false,
      "stateMutability": "view",
      "type": "function"
    },
    {
      "constant": true,
      "inputs": [
        {
          "internalType": "address",
          "name": "_registrar",
          "type": "address"
        }
      ],
      "name": "getNumberOfItems",
      "outputs": [
        {
          "internalType": "uint256",
          "name": "",
          "type": "uint256"
        }
      ],
      "payable": false,
      "stateMutability": "view",
      "type": "function"
    },
    {
      "constant": true,
      "inputs": [
        {
          "internalType": "address",
          "name": "_registrar",
          "type": "address"
        },
        {
          "internalType": "uint256",
          "name": "_index",
          "type": "uint256"
        }
      ],
      "name": "getItembyIndex",
      "outputs": [
        {
          "components": [
            {
              "internalType": "uint256",
              "name": "id",
              "type": "uint256"
            },
            {
              "internalType": "uint256",
              "name": "blockTimestamp",
              "type": "uint256"
            },
            {
              "internalType": "uint256",
              "name": "mintAmount",
              "type": "uint256"
            },
            {
              "internalType": "address",
              "name": "tokenContract",
              "type": "address"
            },
            {
              "internalType": "address",
              "name": "registrar",
              "type": "address"
            },
            {
              "internalType": "string",
              "name": "fileHash",
              "type": "string"
            },
            {
              "internalType": "string",
              "name": "adrCloudStorage",
              "type": "string"
            },
            {
              "internalType": "string",
              "name": "metadata",
              "type": "string"
            }
          ],
          "internalType": "struct ProofOfAsset.Item",
          "name": "",
          "type": "tuple"
        }
      ],
      "payable": false,
      "stateMutability": "view",
      "type": "function"
    }
  ],
  "bytecode": "0x6080604052600060025534801561001557600080fd5b5060008054600160a060020a03191633179055611405806100376000396000f3fe608060405234801561001057600080fd5b50600436106100d1576000357c01000000000000000000000000000000000000000000000000000000009004806396557d841161008e57806396557d841461016457806398d5fdca14610177578063bfb231d21461017f578063d14ad461146101a6578063ddf055f6146101b9578063ea4fc4d6146101cc576100d1565b80630feae47f146100d657806344b8ac7e146100f457806376ce25c6146101145780638a891ad2146101275780638da5cb5b1461013a57806391b7f5ed1461014f575b600080fd5b6100de6101df565b6040516100eb9190611251565b60405180910390f35b610107610102366004610f58565b6101e6565b6040516100eb9190611240565b610107610122366004611083565b61042b565b610107610135366004610f92565b61068c565b61014261074f565b6040516100eb9190611222565b61016261015d366004611083565b61075e565b005b6100de610172366004610f32565b610763565b6100de61077e565b61019261018d366004611083565b610784565b6040516100eb98979695949392919061125f565b6101926101b4366004610f58565b610971565b6101626101c7366004610fc7565b610a2c565b6101926101da366004610f92565b610d33565b6002545b90565b6101ee610dd9565b600160a060020a038316600090815260056020526040902080548390811061021257fe5b60009182526020918290206040805161010080820183526008949094029092018054835260018082015484870152600280830154858501526003830154600160a060020a03908116606087015260048401541660808601526005830180548551938116159097026000190190961604601f81018790048702820187019093528281529294909360a08601939290918301828280156102f15780601f106102c6576101008083540402835291602001916102f1565b820191906000526020600020905b8154815290600101906020018083116102d457829003601f168201915b505050918352505060068201805460408051602060026001851615610100026000190190941693909304601f81018490048402820184019092528181529382019392918301828280156103855780601f1061035a57610100808354040283529160200191610385565b820191906000526020600020905b81548152906001019060200180831161036857829003601f168201915b505050918352505060078201805460408051602060026001851615610100026000190190941693909304601f81018490048402820184019092528181529382019392918301828280156104195780601f106103ee57610100808354040283529160200191610419565b820191906000526020600020905b8154815290600101906020018083116103fc57829003601f168201915b50505050508152505090505b92915050565b610433610dd9565b6002548210610477576040517f08c379a000000000000000000000000000000000000000000000000000000000815260040161046e90611230565b60405180910390fd5b6000828152600360208181526040928390208351610100808201865282548252600180840154838601526002808501548489015295840154600160a060020a03908116606085015260048501541660808401526005840180548851928116159093026000190190921695909504601f81018590048502860185019096528585529094919360a08601939092908301828280156105545780601f1061052957610100808354040283529160200191610554565b820191906000526020600020905b81548152906001019060200180831161053757829003601f168201915b505050918352505060068201805460408051602060026001851615610100026000190190941693909304601f81018490048402820184019092528181529382019392918301828280156105e85780601f106105bd576101008083540402835291602001916105e8565b820191906000526020600020905b8154815290600101906020018083116105cb57829003601f168201915b505050918352505060078201805460408051602060026001851615610100026000190190941693909304601f810184900484028201840190925281815293820193929183018282801561067c5780601f106106515761010080835404028352916020019161067c565b820191906000526020600020905b81548152906001019060200180831161065f57829003601f168201915b5050505050815250509050919050565b610694610dd9565b6004826040516106a4919061120f565b908152604080516020928190038301812061010080830184528154835260018083015486850152600280840154858701526003840154600160a060020a03908116606087015260048501541660808601526005840180548751938116159094026000190190931604601f81018790048702820187019095528481529294919360a0860193928301828280156105545780601f1061052957610100808354040283529160200191610554565b600054600160a060020a031681565b600155565b600160a060020a031660009081526005602052604090205490565b60015490565b60036020818152600092835260409283902080546001808301546002808501549685015460048601546005870180548b516101009782161597909702600019011693909304601f8101899004890286018901909a528985529498929796600160a060020a03918216969190951694909392908301828280156108475780601f1061081c57610100808354040283529160200191610847565b820191906000526020600020905b81548152906001019060200180831161082a57829003601f168201915b5050505060068301805460408051602060026001851615610100026000190190941693909304601f81018490048402820184019092528181529495949350908301828280156108d75780601f106108ac576101008083540402835291602001916108d7565b820191906000526020600020905b8154815290600101906020018083116108ba57829003601f168201915b5050505060078301805460408051602060026001851615610100026000190190941693909304601f81018490048402820184019092528181529495949350908301828280156109675780601f1061093c57610100808354040283529160200191610967565b820191906000526020600020905b81548152906001019060200180831161094a57829003601f168201915b5050505050905088565b6005602052816000526040600020818154811061098a57fe5b600091825260209182902060089091020180546001808301546002808501546003860154600487015460058801805460408051601f6000199a841615610100029a909a01909216969096049788018b90048b0281018b01909552868552969a509398509096600160a060020a039182169693909116949293919291908301828280156108475780601f1061081c57610100808354040283529160200191610847565b610a34610dd9565b50604080516101008101825260028054808352426020808501918252848601878152600160a060020a03808a1660608801908152336080890190815260a089018f815260c08a018f905260e08a018e9052600097885260038087529a90972089518155955160018701559251968501969096559451968301805497861673ffffffffffffffffffffffffffffffffffffffff19988916179055516004830180549190951696169590951790925551805192938493610af89260058501920190610e30565b5060c08201518051610b14916006840191602090910190610e30565b5060e08201518051610b30916007840191602090910190610e30565b5050600280546001908101825533600090815260056020818152604080842080548087018083559186529483902089516008909602019485558883015195850195909555870151948301949094556060860151600383018054600160a060020a0392831673ffffffffffffffffffffffffffffffffffffffff1991821617909155608088015160048501805491909316911617905560a0860151805193955086949293610be593928501929190910190610e30565b5060c08201518051610c01916006840191602090910190610e30565b5060e08201518051610c1d916007840191602090910190610e30565b5050505080600487604051610c32919061120f565b90815260408051918290036020908101909220835181558383015160018201559083015160028201556060830151600382018054600160a060020a0392831673ffffffffffffffffffffffffffffffffffffffff1991821617909155608085015160048401805491909316911617905560a083015180519192610cbd92600585019290910190610e30565b5060c08201518051610cd9916006840191602090910190610e30565b5060e08201518051610cf5916007840191602090910190610e30565b505060025460405160001990910191507fe6a277db2ccfa3077b4f153935dc9633865a88e7c3f9767488c726f8cb288ec490600090a2505050505050565b805160208183018101805160048083529383019483019490942093905282546001808501546002808701546003880154968801546005890180546040805161010098831615989098026000190190911694909404601f8101899004890287018901909452838652959893979196600160a060020a0392831696929091169492908301828280156108475780601f1061081c57610100808354040283529160200191610847565b6040518061010001604052806000815260200160008152602001600081526020016000600160a060020a031681526020016000600160a060020a031681526020016060815260200160608152602001606081525090565b828054600181600116156101000203166002900490600052602060002090601f016020900481019282601f10610e7157805160ff1916838001178555610e9e565b82800160010185558215610e9e579182015b82811115610e9e578251825591602001919060010190610e83565b50610eaa929150610eae565b5090565b6101e391905b80821115610eaa5760008155600101610eb4565b8035610425816113a2565b600082601f830112610ee457600080fd5b8135610ef7610ef282611311565b6112ea565b91508082526020830160208301858383011115610f1357600080fd5b610f1e83828461135c565b50505092915050565b8035610425816113b9565b600060208284031215610f4457600080fd5b6000610f508484610ec8565b949350505050565b60008060408385031215610f6b57600080fd5b6000610f778585610ec8565b9250506020610f8885828601610f27565b9150509250929050565b600060208284031215610fa457600080fd5b813567ffffffffffffffff811115610fbb57600080fd5b610f5084828501610ed3565b600080600080600060a08688031215610fdf57600080fd5b853567ffffffffffffffff811115610ff657600080fd5b61100288828901610ed3565b955050602086013567ffffffffffffffff81111561101f57600080fd5b61102b88828901610ed3565b945050604086013567ffffffffffffffff81111561104857600080fd5b61105488828901610ed3565b935050606061106588828901610ec8565b925050608061107688828901610f27565b9150509295509295909350565b60006020828403121561109557600080fd5b6000610f508484610f27565b6110aa8161134b565b82525050565b60006110bb82611339565b6110c58185611346565b93506110d5818560208601611368565b9290920192915050565b60006110ea82611339565b6110f4818561133d565b9350611104818560208601611368565b61110d81611398565b9093019392505050565b6000611124601b8361133d565b7f4552524f523a20696e646578206f7574206f6620626f756e64733a0000000000815260200192915050565b80516000906101008401906111658582611206565b5060208301516111786020860182611206565b50604083015161118b6040860182611206565b50606083015161119e60608601826110a1565b5060808301516111b160808601826110a1565b5060a083015184820360a08601526111c982826110df565b91505060c083015184820360c08601526111e382826110df565b91505060e083015184820360e08601526111fd82826110df565b95945050505050565b6110aa816101e3565b600061121b82846110b0565b9392505050565b6020810161042582846110a1565b6020808252810161042581611117565b6020808252810161121b8184611150565b602081016104258284611206565b610100810161126e828b611206565b61127b602083018a611206565b6112886040830189611206565b61129560608301886110a1565b6112a260808301876110a1565b81810360a08301526112b481866110df565b905081810360c08301526112c881856110df565b905081810360e08301526112dc81846110df565b9a9950505050505050505050565b60405181810167ffffffffffffffff8111828210171561130957600080fd5b604052919050565b600067ffffffffffffffff82111561132857600080fd5b506020601f91909101601f19160190565b5190565b90815260200190565b919050565b6000600160a060020a038216610425565b82818337506000910152565b60005b8381101561138357818101518382015260200161136b565b83811115611392576000848401525b50505050565b601f01601f191690565b6113ab8161134b565b81146113b657600080fd5b50565b6113ab816101e356fea365627a7a72315820570235b241260337e185b23e496e4f9325bfb7294dac5c17971f4194837537c96c6578706572696d656e74616cf564736f6c63430005100040",
  "source": "pragma solidity ^0.5.0;\npragma experimental ABIEncoderV2;   // required to pass structs as function parameter and return values\n\n/// @title  ProofOfAsset\n/// @author Sven Meyer\n/// @notice only implements very basic functionality (add, retrieve)\n/// @dev functions passing structs can be tested using the experimental ABIEncoderV2\n\ncontract ProofOfAsset {\n\n\taddress public owner;\n\n\tconstructor() public {\n\t\towner = msg.sender;\n\t}\n\n\t// set / get price for a registration transaction\n\n\tuint private price;\n\n\tfunction setPrice(uint x) public {\n\t\tprice = x;\n\t}\n\n\tfunction getPrice() public view returns (uint) {\n\t\treturn price;\n\t}\n\n\t// ----------------------------------------------------------------------------\n\n\t// error codes library\n\tint constant code_item_not_found     = -1;\n\tint constant code_not_authorized     = -2;\n\tint constant code_invalid_params     = -3;\n\tint constant code_already_registered = -4;\n\tint constant code_amount_wrong       = -5;\n\tint constant code_insufficient_funds = -6;\n\n\n\t/// @dev data struct to store one ProofOfAsset item / RegData\n\tstruct Item {\n\t\tuint     id;               // index of item starting with 0\n\t\tuint     blockTimestamp;   // timestamp of registration\n\t\tuint     mintAmount;       // number of token minted for this registration\n\t\taddress  tokenContract;    // address of token to mint\n\t\taddress  registrar;        // registrar of item\n\t\tstring   fileHash;         // hash of file (= IPFS storage location)\n\t\tstring   adrCloudStorage;  // backup / 2nd cloud storage location\n\t\tstring   metadata;         // (optional) additional metadata\n\t}\n\n\tuint itemCount = 0; // private - we do not want direct access to it\n\n\tfunction getNumberofItems() public view returns (uint) {\n\t\treturn itemCount;\n\t}\n\n\t/// @dev mapping from id to one item\n\tmapping (uint => Item) public items;\n\n\t/// @dev mapping from hash to item\n\tmapping (string => Item) public itemByHash;\n\n\t/// @dev mapping from registrar address to array of items\n\tmapping (address => Item[]) public itemsOfRegistrar;\n\n\n\t/// @dev event to notify of result of addItem function\n\t/// @return if >= 0 itemID\n\t/// @return if <  0 errorCode\n\tevent eventAddItem(\n\t\tint indexed itemID // or errorCode\n\t);\n\n\n\t/// @dev add a new item to the collection\n\t/// @dev emits eventAddItem event\n\n\tfunction addItem(string memory _fileHash,\n                     string memory _adrCloudStorage,\n                     string memory _metadata,\n\t\t\t\t\t address _tokenContract,\n                     uint    _mintAmount)\n                     public {\n\t\t// if parameter not too long\n\t\t// if item does not already exist\n\t\t// if payment >= (price * mint_amount)\n\t\tItem memory item = Item({\n\t\t\tid              : itemCount,\n\t\t\tregistrar       : msg.sender,  // tx.origin ? https://solidity.readthedocs.io/en/v0.5.3/security-considerations.html#tx-origin\n\t\t\tblockTimestamp  : block.timestamp,\n\t\t\ttokenContract   : _tokenContract,\n\t\t\tmintAmount      : _mintAmount,\n\t\t\tfileHash        : _fileHash,\n\t\t\tadrCloudStorage : _adrCloudStorage,\n\t\t\tmetadata        : _metadata\n\t\t});\n\t\titems[itemCount] = item;\n\t\titemCount++;\n\t\t// add to registrar > item mapping\n\t\titemsOfRegistrar[msg.sender].push(item);\n\t\t// add to hash > item mapping\n\t\titemByHash[_fileHash] = item;\n\t\t// mint token\n\t\t// _tokenContract.mint(_mintAmount, msg.sender);  // TODO\n\t\temit eventAddItem(int(itemCount - 1));\n\t}\n\n\n\t/// @dev retrieve item by index from collection\n\t/// @param index (starting with 0) of item within items\n\t/// @return url URL to the media file (image or video)\n\t/// @return caption Caption text for media item\n\t/// @dev Item struct will be decomposed and the elements will be returned individually\n    /*\n\tfunction getItemByIndex(uint index) public view returns (string memory, string memory) {\n\t\trequire(index < itemCount, \"ERROR: index out of bounds:\");\n\t\treturn(items[index].url, items[index].caption);\n\t}\n    */\n\n\t/// @dev retrive item  by index as struct from collection\n\t/// @param index (starting with 0) of item within items\n\t/// @return Item struct\n\t/// @dev emits ItemAdded event\n\t/// @dev Passing structs is only supported in the new experimental ABI encoder - use with care!\n\tfunction getItemStructByIndex(uint index) public view returns (Item memory) {\n\t\trequire(index < itemCount, \"ERROR: index out of bounds:\");\n\t\treturn(items[index]);\n\t}\n\n\tfunction getItemStructByHash(string memory _fileHash) public view returns (Item memory) {\n\t\treturn(itemByHash[_fileHash]);\n\t}\n\n\tfunction getNumberOfItems(address _registrar) public view returns (uint) {\n\t\t// TODO : check for existnece before trying to access length\n\t\treturn(itemsOfRegistrar[_registrar].length);\n\t}\n\n\tfunction getItembyIndex(address _registrar, uint _index) public view returns (Item memory) {\n\t\t// TODO : check for existnece before trying to access length\n\t\treturn(itemsOfRegistrar[_registrar][_index]);\n\t}\n\n}\n",
  "sourcePath": "/home/sum/DEV/IronOre/Proof-of-Asset-Eth/contracts/ProofOfAsset.sol",
  "compiler": {
    "name": "solc",
    "version": "0.5.16+commit.9c3226ce.Emscripten.clang"
  },
  "schemaVersion": "3.0.23",
  "updatedAt": "2020-02-07T14:18:34.027Z",
  "devdoc": {
    "author": "Sven Meyer",
    "details": "functions passing structs can be tested using the experimental ABIEncoderV2",
    "methods": {
      "addItem(string,string,string,address,uint256)": {
        "details": "add a new item to the collectionemits eventAddItem event"
      },
      "getItemStructByIndex(uint256)": {
        "details": "retrive item  by index as struct from collectionemits ItemAdded eventPassing structs is only supported in the new experimental ABI encoder - use with care!",
        "params": {
          "index": "(starting with 0) of item within items"
        },
        "return": "Item struct"
      }
    },
    "title": "ProofOfAsset"
  },
  "userdoc": {
    "methods": {},
    "notice": "only implements very basic functionality (add, retrieve)"
  }
}