{
  "contractName": "ProofOfAsset",
  "abi": [
    {
      "inputs": [],
      "payable": false,
      "stateMutability": "nonpayable",
      "type": "constructor"
    },
    {
      "anonymous": false,
      "inputs": [
        {
          "indexed": false,
          "internalType": "uint256",
          "name": "id",
          "type": "uint256"
        },
        {
          "indexed": false,
          "internalType": "bool",
          "name": "completed",
          "type": "bool"
        }
      ],
      "name": "TaskCompleted",
      "type": "event"
    },
    {
      "anonymous": false,
      "inputs": [
        {
          "indexed": false,
          "internalType": "uint256",
          "name": "id",
          "type": "uint256"
        },
        {
          "indexed": false,
          "internalType": "string",
          "name": "content",
          "type": "string"
        },
        {
          "indexed": false,
          "internalType": "bool",
          "name": "completed",
          "type": "bool"
        }
      ],
      "name": "TaskCreated",
      "type": "event"
    },
    {
      "anonymous": false,
      "inputs": [
        {
          "indexed": false,
          "internalType": "uint256",
          "name": "newValue",
          "type": "uint256"
        }
      ],
      "name": "ValueChanged",
      "type": "event"
    },
    {
      "constant": true,
      "inputs": [],
      "name": "taskCount",
      "outputs": [
        {
          "internalType": "uint256",
          "name": "",
          "type": "uint256"
        }
      ],
      "payable": false,
      "stateMutability": "view",
      "type": "function"
    },
    {
      "constant": true,
      "inputs": [
        {
          "internalType": "uint256",
          "name": "",
          "type": "uint256"
        }
      ],
      "name": "tasks",
      "outputs": [
        {
          "internalType": "uint256",
          "name": "id",
          "type": "uint256"
        },
        {
          "internalType": "string",
          "name": "content",
          "type": "string"
        },
        {
          "internalType": "bool",
          "name": "completed",
          "type": "bool"
        }
      ],
      "payable": false,
      "stateMutability": "view",
      "type": "function"
    },
    {
      "constant": false,
      "inputs": [
        {
          "internalType": "uint256",
          "name": "newValue",
          "type": "uint256"
        }
      ],
      "name": "store",
      "outputs": [],
      "payable": false,
      "stateMutability": "nonpayable",
      "type": "function"
    },
    {
      "constant": true,
      "inputs": [],
      "name": "retrieve",
      "outputs": [
        {
          "internalType": "uint256",
          "name": "",
          "type": "uint256"
        }
      ],
      "payable": false,
      "stateMutability": "view",
      "type": "function"
    },
    {
      "constant": false,
      "inputs": [
        {
          "internalType": "string",
          "name": "_content",
          "type": "string"
        }
      ],
      "name": "createTask",
      "outputs": [],
      "payable": false,
      "stateMutability": "nonpayable",
      "type": "function"
    },
    {
      "constant": false,
      "inputs": [
        {
          "internalType": "uint256",
          "name": "_id",
          "type": "uint256"
        }
      ],
      "name": "toggleCompleted",
      "outputs": [],
      "payable": false,
      "stateMutability": "nonpayable",
      "type": "function"
    }
  ],
  "bytecode": "0x6080604052600060015534801561001557600080fd5b506100636040518060400160405280600681526020017f5461736b203100000000000000000000000000000000000000000000000000008152506100b5640100000000026401000000009004565b6100b06040518060400160405280600681526020017f5461736b203200000000000000000000000000000000000000000000000000008152506100b5640100000000026401000000009004565b61026e565b604080516060810182526001805480835260208084018681526000858701819052928352600282529490912083518155935180519394936100fd9385019291909101906101d3565b50604091820151600291909101805460ff191691151591909117905560018054808201909155815181815260009281018390526060602080830182815286519284019290925285517f05d0fb833127fc08168556d0e7ca9554fc3f6bc843b3b7d2bf1c35aea6bab6609587949093909290916080840191860190808383885b8381101561019457818101518382015260200161017c565b50505050905090810190601f1680156101c15780820380516001836020036101000a031916815260200191505b5094505050505060405180910390a150565b828054600181600116156101000203166002900490600052602060002090601f016020900481019282601f1061021457805160ff1916838001178555610241565b82800160010185558215610241579182015b82811115610241578251825591602001919060010190610226565b5061024d929150610251565b5090565b61026b91905b8082111561024d5760008155600101610257565b90565b6106aa8061027d6000396000f3fe608060405234801561001057600080fd5b506004361061007e577c01000000000000000000000000000000000000000000000000000000006000350463111002aa81146100835780632e64cec11461012b578063455f5024146101455780636057361d146101625780638d9776721461017f578063b6cb58a514610226575b600080fd5b6101296004803603602081101561009957600080fd5b8101906020810181356401000000008111156100b457600080fd5b8201836020820111156100c657600080fd5b803590602001918460018302840111640100000000831117156100e857600080fd5b91908080601f01602080910402602001604051908101604052809392919081815260200183838082843760009201919091525092955061022e945050505050565b005b61013361034c565b60408051918252519081900360200190f35b6101296004803603602081101561015b57600080fd5b5035610353565b6101296004803603602081101561017857600080fd5b50356104cb565b61019c6004803603602081101561019557600080fd5b5035610506565b604051808481526020018060200183151515158152602001828103825284818151815260200191508051906020019080838360005b838110156101e95781810151838201526020016101d1565b50505050905090810190601f1680156102165780820380516001836020036101000a031916815260200191505b5094505050505060405180910390f35b6101336105b4565b604080516060810182526001805480835260208084018681526000858701819052928352600282529490912083518155935180519394936102769385019291909101906105ba565b50604091820151600291909101805460ff191691151591909117905560018054808201909155815181815260009281018390526060602080830182815286519284019290925285517f05d0fb833127fc08168556d0e7ca9554fc3f6bc843b3b7d2bf1c35aea6bab6609587949093909290916080840191860190808383885b8381101561030d5781810151838201526020016102f5565b50505050905090810190601f16801561033a5780820380516001836020036101000a031916815260200191505b5094505050505060405180910390a150565b6000545b90565b61035b610638565b6002600083815260200190815260200160002060405180606001604052908160008201548152602001600182018054600181600116156101000203166002900480601f01602080910402602001604051908101604052809291908181526020018280546001816001161561010002031660029004801561041c5780601f106103f15761010080835404028352916020019161041c565b820191906000526020600020905b8154815290600101906020018083116103ff57829003601f168201915b505050918352505060029182015460ff161515602091820152604080840180511590526000868152928252909120825181558282015180519394508493919261046d926001850192909101906105ba565b50604091820151600291909101805460ff1916911515919091179055818101518151848152901515602082015281517fe21fa966ca5cd02748c0752352d18c48165e61cb55b4c29cccf924b5a95fcff1929181900390910190a15050565b60008190556040805182815290517f93fe6d397c74fdf1402a8b72e47b68512f0510d7b98a4bc4cbdf6ac7108b3c599181900360200190a150565b60026020818152600092835260409283902080546001808301805487519281161561010002600019011695909504601f81018590048502820185019096528581529094919390929091908301828280156105a15780601f10610576576101008083540402835291602001916105a1565b820191906000526020600020905b81548152906001019060200180831161058457829003601f168201915b5050506002909301549192505060ff1683565b60015481565b828054600181600116156101000203166002900490600052602060002090601f016020900481019282601f106105fb57805160ff1916838001178555610628565b82800160010185558215610628579182015b8281111561062857825182559160200191906001019061060d565b5061063492915061065b565b5090565b604051806060016040528060008152602001606081526020016000151581525090565b61035091905b80821115610634576000815560010161066156fea265627a7a72315820ab8ca0a8004f3b44aba41ce50cad3b75e1cc2a6adcb70bb79d584c8286617c9164736f6c63430005100032",
  "source": "pragma solidity ^0.5.0;\n\ncontract ProofOfAsset {\n\n\t// basic test variable\n\n\tuint256 private value;\n\n\t// Emitted when the stored value changes\n\tevent ValueChanged(uint256 newValue);\n\n\t// Stores a new value in the contract\n\tfunction store(uint256 newValue) public {\n\t\t\tvalue = newValue;\n\t\t\temit ValueChanged(newValue);\n\t}\n\n\t// Reads the last stored value\n\tfunction retrieve() public view returns (uint256) {\n\t\t\treturn value;\n\t}\n\n\t// real contract starts here --------------------------------------------------\n\n\tuint public taskCount = 0;\n\n\t// datatype for tasks\n\tstruct Task {\n\t\tuint id;\n\t\tstring content;\n\t\tbool completed;\n\t}\n\n\tmapping (uint => Task) public tasks;\n\n\tevent TaskCreated(\n\t\tuint id,\n\t\tstring content,\n\t\tbool completed\n\t);\n\n\tevent TaskCompleted(\n\t\tuint id,\n\t\tbool completed\n\t);\n\n\tconstructor() public {\n\t\tcreateTask(\"Task 1\");\n\t\tcreateTask(\"Task 2\");\n\t}\n\n\tfunction createTask(string memory _content) public {\n\t\ttasks[taskCount] = Task(taskCount, _content, false);\n\t\ttaskCount++;\n\t\temit TaskCreated(taskCount-1, _content, false);\n\t}\n\n\tfunction toggleCompleted(uint _id) public {\n\t\tTask memory _task = tasks[_id];\n    _task.completed = !_task.completed;\n    tasks[_id] = _task;\n\t\temit TaskCompleted(_id, _task.completed);\n\t}\n}",
  "sourcePath": "/home/sum/DEV/IronOre/Proof-of-Asset-Eth/contracts/ProofOfAsset.sol",
  "compiler": {
    "name": "solc",
    "version": "0.5.16+commit.9c3226ce.Emscripten.clang"
  },
  "schemaVersion": "3.0.23",
  "updatedAt": "2020-02-07T08:06:39.520Z",
  "devdoc": {
    "methods": {}
  },
  "userdoc": {
    "methods": {}
  }
}